:400000000040002011000000250300002503000010B500F055FB00F0A5F9C04670B5154C12232360182000F0C3FAFE221202124B1A60124B124A1A6080214901114A11604E
:40004000114A1A600025114B1D604022104B1A600132104B1A6010490D2000F017FA0D2000F0F4F90D4B1D60002000F031FB1123236070BD300010400003014000000140E3
:4000800040FF00800403014041FF008028000340140101400C010140650700000C02224010B572B6EE221202184B1A609922184B1A607723174A1360174A1360E322174B5F
:4000C0001A600432164B1A60D8221201154B1A60F022154B1A600232144B1A60C023144A1360144A1360B03B134A1360134A13600E3B134A13603121124A1160124A13607E
:40010000FFF78CFF00F0FAF810BDC0460003024000070240000104401801044000020440180204400803044000040440180404400005044018050440000604401806044068
:4001400000070440080704401807044010B5064C2378002B07D1054B002B02D0044800E000BF0123237010BD4001002000000000BC380000084B10B5002B03D00749084802
:4001800000E000BF07480368002B00D110BD064B002BFBD09847F9E70000000044010020BC380000B00000200000000010B502F0BBFB024802F0B8FB10BDC046C8380000BF
:4001C00000B58BB06B46DA1D02F0F4FA0200064902A802F04FFF02A802F0A6FB034802F0A3FB0BB000BDC046183900000839000010B500210020FFF7E3FF00210120FFF70E
:40020000DFFF00210220FFF7DBFF00210320FFF7D7FF00210420FFF7D3FF00210520FFF7CFFF00210620FFF7CBFF00210720FFF7C7FF00210820FFF7C3FF00210920FFF75A
:40024000BFFF00210A20FFF7BBFF00210B20FFF7B7FF00210C20FFF7B3FF00210D20FFF7AFFF00210E20FFF7ABFF00210F20FFF7A7FF00211020FFF7A3FF00211120FFF7DA
:400280009FFF00211220FFF79BFF024802F04CFB10BDC046C838000010B562B602F0CEFA0748FFF783FF00F0C3FA00F0E5FAFFF79FFF642000F0FCF800F0BAFDF5E7C04608
:4002C0001C3900000B4B1B68002803D080221206134301E05B005B08064A1360064B1B68002802D02022134301E020229343024A1360704780033A402800034010B503233B
:40030000054A1360054A13602022054B1A600120FFF7D8FF10BDC0460021024030003040000E3F4010B502F067FE03680C2B00D1FEE7FEE710B50300084A1068C318084AC4
:400340009A1A802A02DC054A136005E002F054FE0C2303600120404210BDC046B40000203005002070B50F4E0F4D13E029686B68AC68002202E001C901C30432A242FAD165
:40038000E868002202E0002102C304328242FAD11035013E002EE9D102F034FEFFF77CFFFEE7C046010000008840000010B500230AE0032B03D89A000849505800E00848EB
:4003C0009900084A885001332B2BF2D9FFF768FE80229205044B1A6010BDC04600000000250300000000002008ED00E00C4B1B689B001C22134018330A4A126892080321BA
:400400000A40D34008490868084A02400A60084A944663441B78DBB2064A13607047C046080F03402800034000002240FFFFFFBF4DF3FF0F0C0F0340034B18688023DB054D
:40044000184000D001207047000022401F2318401E3B8340014A13607047C04600E100E01F2318401E3B8340014A13607047C04680E100E01F2318401E3B8340014A136042
:400480007047C04680E200E001BE704770B504000D001B2802D90020FFF7F6FF1034A40080239B059C4664442068256070BDC04610B5040006E0084B586802F075FA074BFE
:4004C0009C46644480231B029C42F4D8024B9868604302F069FA10BDB80000200080FFFF70B582B000F0E2F800284DD002F065FA0500264B1A6892001C231A401832244B0D
:400500001B689B0803210B40DA400021214B1960214C2168214B0B4021494A438021C9018C466244D20B013A5205520D1343A0225203134323601B4B1B680193302002F0AC
:4005400043FA194A13688021C9050B4313602668164B1E40002407E00120FFF7A9FF1034A30533430C4A1360EE2CF5D90120FFF79FFFFF239B051E43074B1E60019A094B6F
:400580001A60280002F01DFA02B070BD080F0340280003400C0F03400800224000F800C040420F003000104000002240FFFF3FC0F0B583B0040018280BD01C2809D02028A0
:4005C00007D0242805D0282803D02C2801D0302849D102F0F2F90190FFF72EFF002803D0FFF704FF012600E00026214A136807218B4313601F4BE3181B78DBB21E4A1360E8
:400600001E4A13688B4313601D4803687F22934319001C4BE3181B7813400B430360322002F0C2F9182C16D9114F3B680725AB431A0023001C3B9B082B4013433B60322009
:4006400002F0B2F93A68AA432300183B9B082C001C4014433C60012E01D1FFF741FF019802F0AFF902E00020FFF70EFF03B0F0BD080F03404DF3FF0F0C0F0340100F034083
:40068000180F034034F3FF0F10B5034B1B7B584302F08AF910BDC046B8000020024B1868800F80077047C0460C022240034B1B68002B01DA012000E0002070470000224016
:4006C000014A024B1A6070476588EDAC3800034010B50400FFF7E2FFA0421AD0144A136803218B431360134B1B689B0F01D17C2001E086204000FFF7C7FF02F05EF90D4A6A
:4007000013689B009B08A40FA4071C43146002F058F9074B1B6803229343064A1268920F01D1023200E001221343014A136010BD140222400C02224010B5040002F03DF98E
:40074000054B1C4005490B68054A134023430B600B6802F036F910BD0404040010022240FBFBFBFF10B5244B1B685B0715D5234B1B685B070ED5224B5969042001401F4C90
:4007800022688A4322605A6982435A619B68002B00D098470420FFF7CFFF174B1B685B0518D5164B1B685B0510D5154B59698022D2001140114802688A4302605969114A07
:4007C0000A405A61DB68002B00D098478020C000FFF7B2FF084B1B685B030CD5074B1B685B0304D5064B1B69002B00D098478020C002FFF7A1FF10BD10022240CC000020DB
:400800005C010020FFFBFFFF10B5084B1B78002B06D100F019F900F0A3F90122034B1A7000F058F800F078FD10BDC0467401002070B5FFF7E9FF051E02D100F09DFC050079
:40084000002D02D100F0F4FA0500002D02D00BE0013C00E0074C00F0A7FA002801D0002CF6D1002C00D1102500F084F900F0C8F9280070BD404B4C0070B5144D0026002472
:400880001FE01F23234001229A40110062091048043293001A580A40C3185B6813420ED0280000F051F806002900200000F0A2F8002E04D03100200001F058FF0626203517
:4008C0000134122CDDD9300070BDC04648390000E001002070B500230CE013489A1D920000211150191D8A00012149421150821851600133002BF0D00C4C132310E066680C
:40090000A27E094B5B1900211977012A06D12069002803D0717A228B02F0A3FB20342B005D1E002BEBD170BDE00100204839000030B50B884A889C1A00250D81807984426E
:4009400000DD0C8130BDC046F0B583B00600846843680093837E01930025002712E0019A2100009800F062F9002805D0002F03D180231B062B431F0021000098FFF7D8FFC9
:400980000C340135338B9D42E9D3380003B0F0BDF0B50A8B8D684F680B69012125E00C00044003D1BE883A7AB21802E0BA883E7A921B2E89B24201D3002200E00A00A2426F
:4009C00002D01E78013E1E70A24202D01C78002C07D188431043002A01D17A7A00E001221A7049000C3501336246541EA446002AD5D1F0BD70B504008A7E124B1B181D7F3D
:400A0000012A04D12800FFF7C3FF050002E00020FFF73AFD0B4B1B191D7763091F2214401E3AA240002D06D1064906339B0058589043585005E0034906339B0058580243FD
:400A40005A5070BDE001002070B5324CD12292000021200002F005FB2F4B238090231B0163802E4BA3800A23238603222C4BE25401213223E1542B4BA3862B4B0A22E2540D
:400A800017222A4BE254153A0233E2543E32183BE252274A043BE2500C221433E2541332244BE254CC33FF33234823520238215222482349605223496254234AA352234BF2
:400AC0000A22E254023B0122E2541222204BE254204A053BE25220003630D12252001E49043102F0B5FA1D4C21001031243413230CE0A268238B04E00B78D37201310C322A
:400B00000300581E002BF7D120342B005D1E002BEFD170BDE00100205C170000B80B000043030000BE84FFFFEB020000EA020000D8B80500E5020000DA020000C05D00002C
:400B4000D6020000E9020000DE020000E2020000E1020000E5070000A43B0000243900000023024AD380024A13607047E0010020C40100207047C046FF231940062902D08C
:400B80008318002199715300195AC3185980C94399808218002393727047C04670B506000D00012305E0220029003000FFF7E4FF23005C1E002BF6D170BDC04610B54001F4
:400BC000054B1B184A00511888009A6894466044997EFFF7E3FF10BD4839000070B505004301064AD3181B8B04E021002800FFF7E5FF23005C1E002BF7D170BD48390000E6
:400C000010B5132303E02000FFF7E8FF23005C1E002BF8D110BDC0469840504380235B009A1A51434018000A7047C046F0B54F4680B482B001900E0015000024012346E0E3
:400C40007B00F3189A885988CB439BB29A423BD17B00985B814206D8431A9946F31900229A72012302E00B1A99460023002B12D1019AD37999450ED9F3199B7A927A93423A
:400C800005D33A0029003000FFF776FF16E0F2190133937212E0FF232B40062B0ED00902F31999469B79194308230122FFF7B4FF020A7B00F3185A804B4698717B00F318AD
:400CC0005A88D2439A8001E0802424063B005F1E002BB5D1200002B004BC9146F0BDC04670B504000D009F2808D91B4B994205D91A49280002F044F8002921D09F2C09D932
:400D0000FF235B009D4205D91549280002F038F8002917D09F2C07D97E2D05D97F21280002F02EF800290FD09F2C0FD93E2D0FD93F21280002F024F800290BD000200AE0FB
:400D4000042008E0032006E0022004E0002002E0002000E0012070BDFE030000FF030000FF01000010B54B1EDBB2032B01D8102300E00023002911D0002B11D064225343DB
:400D80000100180001F076FF002301E0013340000928FBD90A2804D9013B02E0002300E00023D8B210BDC046024BDB68802018407047C046E001002010B5114BDB68DB03FF
:400DC00012D4122812D81F23034001229A40110042090B4C043293001A590A40E3185B68134205D1012404E0112402E0012400E00024002C01D100F03BFE200010BDC046E2
:400E0000E001002010B5084BDB68DB0307D4074B1B78012B05D100F089FD002003E0112001E00120404210BDE0010020C801002010B50F4BDB681B0618D40024012040429B
:400E400011E02000FFF7B8FF00280BD1112C03D80122084B5A7002E00022064B5A70FFF7D1FF04E00134122CEBD900E0112010BDE0010020C8010020F8B54F464646C0B44E
:400E800001280BD0022804D0002399460633984607E0052399460023984602E0002399469846144C00251FE001F087FD2268136861698B43136066683268A77F0721B940AE
:400EC0008A434146B9400A433260227F494691400B4322681360E2681368A1698B43136001F06FFD20340135122DDDD90CBC90469946F8BD503D000010B51B4A9378013366
:400F0000DBB293709078C0B2FFF756FF041E09D1154B9B78122B02D10022134B5A70FFF771FF1EE0104B9B78122B11D10F4B1A8901321A81DA6880218A43DA60DA68120297
:400F4000120ADA60DA6804061443DC60002408E0064AD3681B021B0AD360D16803060B43D360002CC9D110BDC8010020E0010020074A084B1A6001380002074B1860054B7D
:400F80001B68002BFBDB054A024B1A607047C04640000040000001400003014040FF00804001024B18184368D8897047483900000203121A01238B40013B9A4205D90202FA
:400FC000101A834203D3052002E0062000E00020C0B2704770B50E00FFF7E2FF05007188002200F0BFFB01002800FFF779FE041E04D168007188FFF7DBFF040021002800F7
:40100000FFF7B0FE0001C0B22043307470BDC046F0B5474680B488B0050043014C4AD3185C689F6832234B4AD15C4B4801F022FE8046FA20800043465843484901F01AFE53
:40104000FA231B01984200D81800454B9C466044FA21890001F00EFE0600C30700D5013601AB4246DA82FA2292001A823D4A5A82628A9A822200143204920C2363803A4902
:40108000404601F0F7FDE081002323745521280000F0FAFD002100239C46002207E0FB7A994202D239888C4619000C3701326B012748C318DB7E9A42F1D3E37A01AFBB76C3
:4010C000F976237BDB00294AD3185B6802930E239846A04443460393FA239B0060465843234901F0C7FD3883380001F055FD019001E05B00E381E3899E42FAD81D4B98425F
:4011000001D8002600E006265521280000F0BCFD237BDB00154AD3185B6801A84360E37A83764346836001F067FD608021002800FFF750FF5521280000F0A6FD340004435A
:40114000280001F003FB200008B004BC9046F0BD48390000E0010020C05D000070170000E7030000E5070000DC050000B03F0000FF0F0000880D010070B50024002504E07B
:401180002000FFF745FF05430134122CF8D9280070BDC04610B500240AE06301064AD31859682000FFF716FF200001F0CFFA0134122CF2D910BDC04648390000F0B55F46DA
:4011C00056464D464446F0B483B00190284C2368F0273B400093274D2B680221894619408846254E336838218B4619408A4601F0E4FB2368BB43236001F0E3FB01F0DDFBB5
:401200002B6849468B432B6001F0DBFB01F0D5FB336859468B4330221343336001F0D1FB6B469888FFF730FA01F0C7FB336859468B4351460B43336001F0C3FB01F0BDFB2F
:401240002B6849468B4341460B432B6001F0B9FB01F0B3FB2368BB43009A1343236001F0B0FB03B03CBC90469946A246AB46F0BD00040240000404400804044070B5050054
:401280000E00140001F099FB2B685C4034405C402C6001F096FB70BD10B5064A136801218B4313600022EF310348FFF7E7FF00F0CDFB10BDA80229400004024010B504000A
:4012C000144B1B78834223D0012B02D1FFF7E4FF07E0022B05D0042B03D0032B01D101F01DFA012C05D100F06BF90122094B1A700EE0022C0CD0042C0AD0032C05D101F029
:401300001BFA0322034B1A7002E00022014B1A7010BDC046C801002010B5FFF73BFF0020FFF7AAFD0021044B044AD1540020FFF7C5FF002010BDC04643030000E00100205C
:4013400001390843014B18607047C0460002294010B5104B1B68702293431C0032230E4AD15C0E4801F086FC0D4B984204D820232343084A13600BE0084B984204D830236F
:401380002343044A136003E040232343014A136010BDC046D0000020E001002000366E01001BB700034A044B1A60C5225204034B1A60704700008F01C0012940C4012940A7
:4013C000F0B5474680B482B005004301214AD3185A689C68538801279F40013F0A2902D908000A3800E000200A23984688444346642B01D9642398467843642101F03AFCE1
:40140000060040467843642101F034FC020000270023019313E04B00185B864208D80B00824201D207E00123591E002BF3D104E00623019301E0062301930C3401376B0150
:401440000449CB181B8B9F42EDD3019802B004BC9046F0BD48390000F8B54F464646C0B4070046688468357BA84601237F200022914608E0B318DB7A994500D29946984238
:4014800000D9180013005A1E002BF3D100210CE0A318DB7A984200D91800130000E001235A1E002BF4D10C3401313B8B9942F6D34346002B13D0132813D80D49EA008A18DF
:4014C00050686B1EDB00CB18596801F0D3FB4F4647437E2F07D8013D3573012004E0002002E0002000E000200CBC90469946F8BDB03F0000F0B55F4656464D46E0B482B055
:4015000007008A4643689B465B8801229A401300013B019301234AE05B465B19DB7A9946BB686A00D05A4C46002208E05919C97A8C4202D96800C05A0C000C330132F97EC6
:401540008A42F3D364235843019901F093FB64306043514601F08EFB814500D381465B465B194A46DA72BC6800261CE06B00185B64235843019901F07DFB64306319DB7A57
:40158000584353464A465343984203D263190022DA7206E0C01A3230642101F06BFB6319D8720C340136FB7E9E42DFD32B005D1E002BB1D102B01CBC91469A46A346F0BDC8
:4015C000F8B5334B334A9A5C3349585C824206D0FFF752FC2E4B304A995C2E4A99540120FFF7ECFDC02212032C4B1A602C4D2B682C4E33432B6000242B4B1C602B4B1C607B
:401600002B4B1C602B4B1C602B4B1C602B4B1C602B4B1C602B4F3C602B4B1C606022F0212A48FFF72BFE002202212948FFF726FE284A1368802149010B4313608022520067
:40164000254B1A602B6833432B6080235B04234A13602349234A1160234A14603B60FFF7A1FE32230A4AD05CFFF782FCFFF770FE1E4B1B681E4A13431E4A13600F221E4BE3
:401680001A601E4B1C60053A1D4B1A60F8BDC046E0010020430300004203000004022940A802294001000010F4002940B4022940C0022940200329408401294088022940BC
:4016C000800229408402294080012940000402400004044094022940A0022940A4022940411200008801294090022940D0000020001000800000294000032940F001294090
:4017000010032940F8B50700037BDB000F4A9D5801F053F90E4B1A680E4C22400E490E78BF19F97A0A432A431A6001F04AF901F044F90A490B682340094A12689619F27A2F
:4017400013432B430B6001F03CF9F8BDB03F0000C001294080FF3FFCE83F0000C40129402405002010B50300140001208840102900D11D38002B02D0190001F07BFA053C0D
:40178000012C00D84008002800D1013010BDC04610B50C4B1B785B010B4AD3185B68D9891B7C18045A1F012A02D8802292041043053BDBB2012B02D8490800D10131FFF796
:4017C000BFFD10BDCA0100204839000010B50300C08959881A7CFFF7C5FF0004000C014B186010BD1403294010B51020FEF738FE01222C4B1A6000232B490B602B490B607C
:401800002B490B6006202B490860FA302A4908602A490A6083214900294A1160294A13600322294B1A60F02300E0013B244A1268520701D4002BF8D1002B02D10822224B4D
:401840001A60832252001E4B1A601020FEF712FE1020FEF7FBFD0023174A1360134A1360134A1360134A13605021144A11604F390D4A11600B4A1360144A1368802149043C
:401880000B43136002220F4B1A60F02300E0013B0F4A1268520701D0002BF8D10D4A0A4B1A6010BD800129408C012940B0022940B40229408802294080022940F00129400A
:4018C000F0002940F80029404003294000022940000029400103000010B5054AD36805490B43D3600A20FEF7CFFEFFF77DFF10BDE00100208000010070B50400857F067F2D
:4019000001F05BF823681B680F22B24093431A000423B3401343666832680721A9408A4332602268136001F04CF870BDF8B51C4B1B785B011B4AD3185F681B4B1B4A9A5CC0
:401940001B49585C824206D0FFF796FA164B184A995C164A9954174C00232370104E3378104D5B01EB1899682378DBB25A00D3189A008A18104B1A603800FFF7C3FE337833
:401980005B015B592078400118180C4B1860FFF7B3FF0B4800F0FAFFFFF79EFFF8BDC046CA01002048390000E00100204303000042030000CB010020240500202805002093
:4019C000412B000010B54001044BC05849014018034B1860FFF790FF10BDC0464839000028050020F8B50400067F857F00F0E5FF636819680723AB40994327683B680F22D2
:401A0000B24093433B600F4A0F4FBA5C002A05D10623AB4019436368196008E0022A06D10332B24013436268116022681360E1680B68647F0122A24093430B6000F0C1FF8D
:401A4000F8BDC04643030000E001002010B5064B1B78012B06D1054B1868FFF7C3FF0022014B1A7010BDC046CC0100202805002070B5104E4301F3185D68C0B20E4C207038
:401A80000120FFF71BFCFFF7E1FF23785B019A590A4B1A600A4BDA687F218A43DA602178DA680A43DA602800FFF790FEFFF770FE70BDC04648390000CA01002028050020CD
:401AC000E001002070B54301114AD3185D68C9B2104C217099682378DBB25A00D3189A008A180D4B1A60FFF7C3FF2800FFF70AFE20780A4B40011A68944660441860FFF713
:401B0000FBFE0122064B1A70064800F03FFF70BD48390000CB0100202405002028050020CC010020152B0000F0B5574680B484B001904301514AD3185B689A461D000B35D0
:401B4000012303E0002003AB985413005A1E002BF8D153465A8801239340013B59430800642101F087F80600002300936EE0019B5B01424AD3189F68009A530094466344F0
:401B80009A00BF18012304E04023AB54B918CB7213005A1E002BF7D1402400990198FFF791FF0120FFF70AFBFFF796FE344B00E0013B344AD26812060DD5002BF8D1013387
:401BC0000AE05300DB5B9E4203D9A9180B78A3430B70130000E001235A1E002BF1D1640801330FE0A9180B782343DBB20B70B818C372002C05D10B78002B02D101330B701D
:401C0000C37213005A1E002BECD1002CC5D1013307E003AB9B181878A95C884200D2197013005A1E002BF4D100990198FFF74AFFFFF752FE124B00E0013B124AD2681206AB
:401C400001D5002BF8D1009B01330093019B5B010A4AD3181B8B009A9A4288D3012305E003AB995C53469B18D97213005A1E002BF6D104B004BC9246F0BDC046483900004A
:401C800000A60E00E001002070B504000D004601194BF618194BDB68DB032AD4736805221A7329002000FFF73FFF3000FFF7D4FB0028F6D129003000FFF71CFC2000FFF790
:401CC000D7FEFFF733FE0E4B00E0013B0B4AD268120601D5002BF8D1002B05D029002000FFF76EFB050000E01025200000F02EFD00E01125280070BD48390000E001002018
:401D000000366E0170B588B004000D0020221049684601F09DF9002013E0050B227813096B400F252B405B006E469B5B00014340180B42402A405200905B1B0158400134DF
:401D40000D00691E002DE8D180B208B070BDC046EC3F000010B50C4B1B78062B03D101220A4B1A600EE00A4BB92292009A5C01209040B5229200995A00F07CFF0004000C8D
:401D8000024B186010BDC046CE01002014032940E001002083225200064B1A60064B1B689BB2064A5380064AD168064B0B40D3607047C046F0002940D0002940CE0100207F
:401DC000E00100207FFFFEFF01380005000D014B18607047000229407F231840034B1843034B18600022034B1A60704700008301C0012940C401294082B000231B4A136023
:401E00001B4A13601B4A136006211B4A1160FA311A4A116080214904194A11600121194A1160194A0631FF3111601268174A13600322174B1A60F0230193019A03E0019BF2
:401E4000013B0193019A104B1B685B0701D4002AF5D1019B002B02D108220D4B1A600023034A1360034A136002B070478C012940B0022940B4022940880229408002294042
:401E800084022940F0012940F0002940F80029404003294082B00190019A03E0019B013B0193019A044B1B7B5BB2002B01DA002AF4D1019B02B07047E0010020C900074B23
:401EC000CB587F2210401843F0231B031843044B18600022034B1A607047C046B03F0000C0012940C401294001280ED0002804D0022804D0032804D005E0012006E0042022
:401F000004E0002002E0002000E002207047C04610B500F052FD0D4A136838218B43136000F04FFD00F049FD094A1168094B0B40136000F046FD00F040FD074A13680221CD
:401F40008B43136000F03DFD10BDC04608040440A0022940FFFFEFFF0004044010B500F02CFD044A1368F0218B43136000F029FD10BDC0460004024010B500F01EFD05494E
:401F80000B6838229343083A13430B6000F019FD10BDC0460804044070B505000C0000F00CFD69680B68AD7F0722AA409343AC401C430C6000F005FD70BDC04670B50600C3
:401FC000054D002405E031002800FFF7E5FF20350134122CF7D970BD503D000070B505000C0000F0EAFC2A68136869698B43297F8C401C43146000F0E4FC70BD70B50600D9
:40200000054D002405E031002800FFF7E7FF20350134122CF7D970BD503D000010B50400104B1B7983421BD002280AD003280FD0012813D10020FFF7E1FF0620FFF7BEFF6C
:402040000CE00020FFF7DAFF0020FFF7B7FF05E00020FFF7B3FF0420FFF7D0FF014B1C7110BDC046CE01002070B54301114AD3185B695B0709D540018458890061180C8822
:4020800064010D4BE4188E7805E04001094BC458490164180126002509E000212000FFF77BFF04212000FFF799FF20340135AE42F3D870BD48390000503D0000F0B583B0F4
:4020C00043011D4AD3185B695B0709D540018458890061180C886401184BE4188E7805E04001154BC458490164180126144B1B79022B09D0042B03D000270623019306E075
:4021000005270023019302E000270023019300250DE000212000FFF761FF01992000FFF73BFF39002000FFF759FF20340135AE42EFD803B0F0BDC04648390000503D00000D
:40214000CE01002070B505000C0000F036FCEA681368A9698B43697F8C401C43146000F030FC70BD70B50600054D002405E031002800FFF7E7FF20350134122CF7D970BD1B
:40218000503D000070B5B8239B002A4AD55CA900782000F06FFD041E00D101342800FEF7E7FE0322244B1A60244A254B1A601720FEF76AFA234A244B1A60013C234B1C6018
:4021C0000023234A1360234A1360234A1360234A13600121224A11600131224A11608022520521490A60802040032049086020490B60882040021F4908601F490B601F49E4
:402200000B60882149041E4801601E4801601E490A601E4A07498A5C120241210A431C490A601C4A13601C491C4A11601C4A136070BDC046E001002000022940001000858C
:402240000000294093000004C401294000032940C00129408C012940C002294004022940100329401403294080022940840229408802294094022940A0022940A402294028
:40228000B0022940B4022940A8022940E102000088012940900229400100008080012940F800294010B50120FEF788FF00234C4A13604C4A13604C4A13604C4A13604C4AF6
:4022C00013604C4A13604C4A13604C4A136001334B4A13600F214B4A11604B4A136000F06CFB4A4B1A688024640114431C6000F068FB474B1B78062B0ED000F05EFB454B2C
:402300001C68F0229443903A14431C6000F059FB80225200404B1A60802252053F4B1A60802252043E4B1A60394B1B78032B01D0052B05D13B4A3C498C5C24024122144370
:40234000062B05D1394B384AD45C240241231C43374B1C600023264A1360364A13602C4B1B78062B05D0B6239B002F4AD05AFEF7FFFD314B1A6870218A431A60196830227F
:402380000A431A601B682D4A13432D4A13601720FEF77AF91E4B1B78062B09D0294B224AD25C294B1A60C0221203284B1A6005E00022254B1A60264A244B1A600020FFF737
:4023C0000BFD134B1B78062B05D0B5239B00164AD05AFFF7F9FC1F4800F0D8FA10BDC046F4002940B4022940C002294020032940840129408802294080022940840229400C
:402400008001294000032940F001294094022940CE01002000040240A0022940A8022940A4022940E5020000E0010020E90200008801294090022940D40000200010008443
:4024400000002940EB02000010032940040229400A000C00951D000010B50400134B1B78834221D0012B02D0032B03D004E0FFF74FFD01E0FFF772FD0C4B1C70032C0BD08B
:4024800002D8012C05D00FE0062C08D0072C09D00AE0FFF771FD07E0FFF704FF04E0FFF701FF01E0FFF76EFE10BDC046CE01002000B583B0284B832252001A601B681020AF
:4024C000FDF7D8FF1020FDF7C1FF0022234B1A60234B1B78032B05D10023224A13601F4A136004E000231F4A13601C4A136050221D4B1A601A4B1B78062B08D11B4A1C4B62
:402500001A6000231B4A13601B4A136002E00122174B1A60124B1B78032B03D10022174B1A6002E00022154B1A600222144B1A60F0230193019A03E0019B013B0193019A76
:40254000104B1B685B0701D0002AF5D10E4A0F4B1A6003B000BDC046F000294080022940CE01002088022940F0012940010200008C012940B0022940B4022940800129401B
:40258000F800294000002940010300004003294010B50020FEF712FE1020FDF761FF0122064B1A60182000F0FFF9054B1B78062B01D0FFF721FCFFF77BFF10BD8001294006
:4025C000CE010020F0B54F464646C0B483B080463F4BB92292009A5C01249440013CB5229200985AFFF7F0FBFFF7B4FB002500270023994623E0EA00364B9B185A6A9146AB
:402600001F6A39001000FFF759FC314AD16880230B43D360FFF7BCFFE1208001FFF73AFC2D4B5B88FA2080005843210000F022FB0600E1235B00984204D901950135032D70
:40264000D9D900E001954A2E02D8019B002B0ED0E1235B009E4202D9019B032B09D033004B3B7822FF32934205D8002504E0042502E0052500E00325FB00184AD3185868FA
:402680004A460023002100F0A1FB02000B001249488880B2002100F099FB114A002300F095FB0B4F0F4BFA5A002300F06FFB2200002300F06BFBB4239B00FA58002300F0B6
:4026C00065FB43461D7003B00CBC90469946F0BDE0010020EC3F0000CE010020B03F000040420F00DA020000F8B505000E0017004301094AD318DC698B00E418FFF7B4FC45
:402700003800FFF75FFF070031002800FFF7D6FC27603800F8BDC0464839000010B50020FFF79AFE0020FFF779FC0022014B1A7110BDC046CE01002010B50022024B1A7172
:402740000020FFF70FFD10BDCE01002010B5122808D84001044B18184468A01C1021FFF7D1FA208010BDC0464839000030B543091F2404400122A2400B4C04339B00E318AD
:402780005D6895435D60AF239B00E358DA0609D4220010242343AF24A4001351034BD054034BD15430BDC046E0010020C9020000CA02000070B506000C0015004301114A68
:4027C000D3181B8B122816D88B4217D90320FEF775FD0320FFF740FE0B4B0C4AD05CFFF783FB0B4B1871FFF719FC2A0021003000FFF77AFF04E08020C00501E08020C005D3
:4028000070BDC04648390000E6020000E0010020CE01002010B500F075F810BD10B500F01DF810BD10B5044A1368802109060B431360FFF7EFFF10BD0000274010B5064B59
:402840001B78002B04D1FFF7E9FF0122024B1A70FFF7E8FF10BDC046D4010020154A164B1A600023154A13601549164A1160164A16490A6007201649086016490B600638CB
:402880001549086015490A60154A13600421154A1160154A1360154A1360154A1360154A1360154A1360154A13601268144B1A807047C0460B00000200002740400027408C
:4028C00001000A00480027400700008000032740040327401003274044002740000227400402274050002740880E2740C80E2740480F2740080F2740C80F2740880F27405B
:40290000D601002005490B68F0229343603A13430B60034B1A88034B1A60704700070240D6010020880F274070B50500002402E000F024F90134285D0028F9D170BDC046D3
:402940008023014AD05070470000002010B5040000F033F8044A1368C0218B43A4011C43146000F02EF810BD10E400E080225202014B1A607047C04600E100E080225202B7
:40298000014B1A607047C04680E100E010B50400FFF7F4FF2000FFF7D3FF0320FFF7D6FFFFF7E4FF10BDC0460230800803D001300238FCD1C046C0467047EFF3108072B6FD
:4029C000704780F31088704770B50400FFF7F5FF0500102C05D8104A136803218B43136016E0202C07D80C490B6803229343023A13430B600CE0302C07D807490B68032203
:402A00009343013A13430B6002E00020FDF73CFD2800FFF7D6FF70BD300010400E4B1B785B010E4AD3185B680D4A11680A04120C588801238340013B9A4206D2094B1A681E
:402A4000094B1B785B00D15205E0064A1168064A127852008B527047CA01002048390000D000294024050020E83F000070B5224B1A78224952018A1850681B785B01CB1860
:402A80001A7E013A1E4B1B78DBB29A421CD91C4C23780133DBB22370174D2B785B01CB1899682378DBB25A00D3189A008A18154B1A60FEF727FE2878C0B22178C9B2FEF793
:402AC00081FFFEF791FE16E000220D4B1A700E4AD1680E4B0B40D3600D4B1B78012B02D1FEF70AFA07E0084BDA6880218A43DA601A8901321A8170BDCA010020483900005F
:402B0000CB01002024050020E0010020FFFFFEFFC901002010B583225200064B1A60FFF77DFF054B1A8901321A81D968034A0A40DA6010BDF0002940E00100207FFFFEFF0C
:402B400010B50A4B1B785B01094A9B58094A147864011C1983225200074B1A60FFF75EFF2000FEF73FFFFFF781FF10BDCA01002048390000CB010020F0002940044B1B685E
:402B80001F221340082BF9D0024B18607047C0460802274040022740F7B5FA278368C58A0193038B867EBF005E43C37E04007B43F618019B2800198800F05CF881B26068A7
:402BC00000F058F8618A704300F054F80600208A3900704300F04EF80649684300F04AF80123002802D040085B00FAE7019A30001380FEBD00E1F50570B50400FA21438A16
:402C0000807E1D04ED1A63688900584300F032F80100280000F02EF8A36805001988E08A00F028F880B26843104900F023F8A38A0A21584300F01EF800230D4A2168102589
:402C40008A425B410222D31A62325343984203D9013D4008062DF9D14B236421584300F009F8E4682080E8B270BDC046A0860100A7610000002243088B4274D303098B42B7
:402C80005FD3030A8B4244D3030B8B4228D3030C8B420DD3FF22090212BA030C8B4202D31212090265D0030B8B4219D300E0090AC30B8B4201D3CB03C01A5241830B8B4293
:402CC00001D38B03C01A5241430B8B4201D34B03C01A5241030B8B4201D30B03C01A5241C30A8B4201D3CB02C01A5241830A8B4201D38B02C01A5241430A8B4201D34B0226
:402D0000C01A5241030A8B4201D30B02C01A5241CDD2C3098B4201D3CB01C01A524183098B4201D38B01C01A524143098B4201D34B01C01A524103098B4201D30B01C01A5A
:402D40005241C3088B4201D3CB00C01A524183088B4201D38B00C01A524143088B4201D34B00C01A5241411A00D20146524110467047FFE701B5002000F006F802BDC046D1
:402D80000029F7D076E770477047C046002B11D1002A0FD1002900D1002802D00021C943081C07B4024802A14018029003BDC046D9FFFFFF03B4684601B5029800F032F8F9
:402DC000019B9E4602B00CBC7047C046F0B54F464646C0B41604360C9946330005042C0C070C150C63437E436F4365431C0CAD1964199C46A64203D980235B0298464744C4
:402E00006346250CEF191D044B464A4343432D0C240464199918C91920000CBC90469946F0BDC046F0B54D46564644465F46F0B4924683B004000D0099468B422FD82CD0B8
:402E40004946504600F0AEF829000600200000F0A9F8331A9846203B9B4600D574E053465A4693401F005346424693401E00AF4229D826D05B46A41BBD41002B00DA79E046
:402E8000002200230092019301235A4693400193012342469340009319E08242D0D900220023009201930C9B002B01D01C605D600098019903B03CBC90469946A246AB4652
:402EC000F0BDA342D6D900220023009201934346002BE8D0FB0772081A4346467B080EE0AB4201D1A2420CD8A41A9D41012024196D410021013E24184D41002E06D0AB429A
:402F0000EED9013E24196D41002EF8D15B460098019900196941002B22DB2B005A46D3402A004446E2401C005B461500002B2CDB26009E40330026004746BE403200801A7F
:402F4000994100900191AEE7424620239B1A5246DA40414613004A468A4017001F4382E7424620239B1A2A0046469A402300F3401343D5E74246202300219B1A00220091EC
:402F800001920122DA40019282E74246202326009B1ADE402F00B446974066463B003343C9E7C04610B5002903D100F007F8203002E0081C00F002F810BDC0461C21012349
:402FC0001B04984201D3000C10391B0A984201D3000A08391B09984201D30009043902A2105C40187047C04604030202010101010000000000000000014B18687047C046BC
:40300000380100200E4B70B500251E000D4CE41AA410A54204D0AB00F35898470135F8E701F020F8084B00251E00084CE41AA410A54204D0AB00F35898470135F8E770BD4F
:4030400070400000704000007040000078400000002310B59A4203D0CC5CC4540133F9E710BD03008218934202D019700133FAE7704700000EB410B59DB002A902900861BD
:403080000B48822488604861012040421FABC881084804CBA400006801938C8100F06EF80023029A13701DB010BC08BC03B01847FFFFFF7F38010020F0B58E6885B0070051
:4030C0000C00039201939E4243D890238A89DB001A423ED003250969236801985B1A029363695D43EB0F5D19029B6D1001331B18AB4200D91D00530510D52900380000F0FF
:4031000037FB061E14D0029A2169FFF7A1FFA289194B134080221343A38112E02A00380000F086FB061E0CD12169380000F0D4FA0C23402201203B60A38940421343A381E0
:4031400017E0029B2661F61826606561019EED1AA560019BB34200D21E0032000399206800F0A5FA0020A3689B1BA36023689E19266005B0F0BDC0467FFBFFFFF0B59FB049
:40318000029005938B890F0016001B0610D50B69002B0DD1402100F0EBFA38603861002804D10C23029A01381360D8E040237B61002306AD6B6120336B761033AB763400E9
:4031C0002378002B03D1A31B049312D003E0252BF9D00134F4E7A31B320039000298FFF76BFF431C00D1B4E06A69049B944663446B612378002B00D1ABE001220023524250
:403200006A6002A95432521801342B60EB60AB601370AB65534E21780522300000F03CFA002807D00123801B83402A68013413432B60EFE72B68DA0604D55322202102A81E
:40324000121811701A0704D553222B2102A81218117022782A2A03D0099B00200A210EE0059A111D12680591002A01DB099204E05242EA60022213432B6001340BE02278F6
:40328000303A092A04D84B4301349B180120F6E7002800D0099323782E2B1ED163782A2B0AD1059B02341A1D1B680592002B01DA01235B42079310E000230A201A0001348B
:4032C0006B6021783039092904D84243013452180123F6E7002B00D00792234E21780322300000F0D9F9002806D04023801B83402A68013413432B60217806221B48661C0C
:40330000297600F0C9F9002812D0194B002B06D10722059B073393430833059314E005AB00933A00134B2900029800E000BF07E005AB00933A000F4B2900029800F08AF8FC
:403340000390039B013304D06B69039A9B186B6135E7BB890B985B0601D5012040421FB0F0BDC0462E400000344000003840000000000000B9300000F7B5170001938A6839
:403380000B6900900C00934200DA130022003B6043321278002A01D001333B6023689B0602D53B6802333B60062523681D401ED0230043331B785A1E9341226892061CD5B3
:4033C0003020E1184331087021005A1C45310978A2184332023311700FE022000123193201990098089EB047431C0ED00135E3683A689B1A9D42F0DBDAE722000199433225
:403400000098089DA847431C02D10120404220E006232068E1683A6803400025042B03D18D1AEB43DB171D40A3682269934201DD9B1AED180027BD420AD0220001231A32CB
:4034400001990098089EB047431CDED00137F2E70020FEBDF0B58BB006920A0043320793059004920A7E0C00109B6E2A00D1ABE011D8632A22D009D8002A00D1B5E0582A3A
:4034800000D0C5E045310A70814A4FE0642A1DD0692A1BD0BCE0732A00D1AAE009D86F2A29D0702A00D0B3E0202209680A43226037E0752A1FD0782A33D0A9E00E001A68CB
:4034C0004236111D196013683370A4E021681A68080606D4490604D5111D19600023D55E02E0111D19601568002D3BDA2D23049A6D42137036E021681A68080606D4490633
:4035000004D51568111D1960ADB202E0111D196015685F4B227E039308276F2A1DD00A271BE022007821453211705A4A19680392081D226818600D68100602D4500600D548
:40354000ADB2D30702D520231A4322601027002D03D1202322689A4322602300002243331A7002E00A274A4B03936368A360002B09DB0422216891432160002D05D1049EAC
:40358000002B11D07BE0002D79D0049E28003900FFF7F6FB039B013E5B5C280033703900FFF768FB051EF1D1082F09D12368DB0706D563682269934202DC3023013E3370D7
:4035C000049B9B1B23612BE009681A68080607D4490605D5111D19601368A28A1A8004E0111D1960136862691A600023049E236116E01A68111D19601668002162683000AE
:4036000000F04AF8002801D0801B6060636803E0260042363270012323610023049A1370079B09AA00932100069B0598FFF7A4FE431C02D10120404227E023693200069912
:403640000598079DA847431CF4D0236800259B070FD4099BE068984217DA180015E022000123193206990598079EB047431CE1D00135E368099A9B1A9D42F0DBE9E726000C
:40368000039B42361B7833708EE70BB0F0BDC0463F40000050400000C9B28218904204D003788B4202D00130F8E70020704710B5884202D98B18984201D3002305E09B1A98
:4036C000013A08D3995C8154FAE7934203D0CC5CC4540133F9E710BD70B50500002944D00C1F2368002B00DAE418280000F0D8F81E4A13681100002B02D16360146031E000
:40370000A3420DD92268A018834203D118685B688218226063600C6024E0A24203D813005A68002AF9D11E689819A0420BD12168711858181960824214D1106852684118A5
:4037400019605A600EE0A04202D90C232B6009E021686018824203D1106852684118216062605C60280000F09CF870BDDC010020032370B5CD1C9D43083506000C2D01D26C
:403780000C2501E0002D01DBA94202D90C23336048E0300000F084F8234B1C681A002100002913D00B685B1B0DD40B2B02D90B60CC181EE08C4202D1636813601AE04B68B5
:4037C00063600C0016E00C004968E9E7174C2368002B03D1300000F051F820602900300000F04CF8431C18D00323C41C9C43A0420DD12560300000F054F8200007220B30B3
:40380000231D9043C31A0ED05A42E2500BE0211A300000F033F8431CEBD10C233000336000F03FF8002070BDDC010020D8010020F8B506000C001500002904D11100FFF72B
:4038400097FF040018E0002A03D1FFF745FF2C0012E000F027F885420ED929003000FFF787FF071E07D021002A00FFF7F1FB21003000FFF731FF3C002000F8BD002370B5D5
:40388000064C050008002360FCF754FD431C03D12368002B00D02B6070BDC0462C050020704770470B1F1A68101F002A04DA891804390B68D018043870470000000000009D
:4038C00064F5FF7F010000000D0A000053554343455353004241445F504152414D0000004C4F575F4C494D4954000000484947485F4C494D495400004552524F52000000D1
:40390000776861743F0000002000000053484F525400000042414400256C7500537461727421000000090B020F06040D070E0C050801030A202020202020202020202020F0
:403940002020202020202000503D000016020020B803002000000000C00100200128000001000101D0040020703D00002C020020C403002000000000BC01002001280000DE
:4039800001000101D4040020903D000042020020D003002000000000B80100200128000001000101D8040020B03D000058020020DC03002000000000B40100200128000083
:4039C00001000101DC040020D03D00006E020020E803002000000000B00100200128000001000101E0040020F03D000084020020F403002000000000AC010020012800003B
:403A000001000101E4040020103E00009A0200200004002000000000A80100200128000001000101E8040020303E0000B00200200C04002000000000A401002001280000EE
:403A400001000101EC040020503E0000C60200201804002000000000A00100200128000001000101F0040020703E0000DC02002024040020000000009C01002001280000A6
:403A800001000101F4040020903E0000F20200203004002000000000980100200128000001000101F8040020B03E0000080300203C0400200000000094010020012800005D
:403AC00001000101FC040020D03E00001E030020480400200000000090010020012800000100010100050020F03E00003403002054040020000000008C0100200128000013
:403B00000100010104050020103F00004A030020600400200000000088010020012800000100010108050020303F0000600300206C040020000000008401002001280000C7
:403B4000010001010C050020503F000076030020780400200000000080010020012800000100010110050020703F00008C03002084040020000000007C010020012800007F
:403B80000100010114050020903F0000A203002090040020000000007801002001280000010001011805002034500C00640028280A031E20050004000000A00000003450C3
:403BC0000C00640028280A031E20050004000000A000000034500C00640028280A031E20050004000000A000000034500C00640028280A031E20050004000000A0000000A1
:403C000034500C00640028280A031E20050004000000A000000034500C00640028280A031E20050004000000A000000034500C00640028280A031E20050004000000A000DC
:403C4000000034500C00640028280A031E20050004000000A000000034500C00640028280A031E20050004000000A000000034500C00640028280A031E200500040000003C
:403C8000A000000034500C00640028280A031E20050004000000A000000034500C00640028280A031E20050004000000A000000034500C00640028280A031E20050004005C
:403CC0000000A000000034500C00640028280A031E20050004000000A000000034500C00640028280A031E20050004000000A000000034500C00640028280A031E20050020
:403D000004000000A000000034500C00640028280A031E20050004000000A000000034500C00640028280A031E20050004000000A000000034500C00640028280A031E20E0
:403D4000050004000000A00000000000000000000002024008020440180204400002044004020440000F0000040000000802060000020240080204401802044000020440C1
:403D800004020440F0000000020000000401030000020240080204401802044000020440040204400F000000010000000000000000010240080104401801044000010440FD
:403DC000040104400000000F400000001806120000010240080104401801044000010440040104400000F0002000000014050F000001024008010440180104400001044016
:403E00000401044000000F001000000010040C000001024008010440180104400001044004010440000F00000400000008020600000102400801044018010440000104402A
:403E400004010440F0000000020000000401030000010240080104401801044000010440040104400F00000001000000000000000004024008040440180404400004044036
:403E80000404044000000F001000000010040C0000040240080404401804044000040440040404400000F0002000000014050F000004024008040440180404400004044077
:403EC000040404400000000F40000000180612000004024008040440180404400004044004040440000000F0800000001C0715000005024008050440180504400005044083
:403F0000040504400000000F40000000180612000005024008050440180504400005044004050440000000F0800000001C0715000002024008020440180204400002044048
:403F4000040204400000F0002000000014050F0000020240080204401802044000020440040204400000000F4000000018061200000202400802044018020440000204408A
:403F800004020440000000F0800000001C071500000602400806044018060440000604400406044000000F001000000010040C00000000017C92000000000003F82401000D
:403FC00000004001E093040000004003C02709000000C001804F120000008001009F240000008003003E49000000000000009AACAEF53459C6475CEB68B2F21E8C8F16239E
:40400000227AB8D64AC8D064E43D7E9102000000140000000200000050000000050000002800000006000000500000004300232D302B2000686C4C00656667454647003093
:40404000313233343536373839414243444546003031323334353637383961626364656600000000F8B5C046F8BC08BC9E46704775010000AD030000F8B5C046F8BC08BC55
:404080009E4670474D01000098400000B000002090000000F00300000000000030050020010000000000E02EC05D00001800000000366E010404040020000004020000007C
:4040C00000000000000000000000000000000000000000000000000000000000000000002C4000000000000000000000000000000000000000000000000000000000000054
:404100000000000000000000000000000000000000000000000000000000000000000000D80000200000000000000000000000000000000000000000000000000000000087
:40414000000000000000000000000000000000000000000000000000000000000000000000000000000000000000000000000000000000000000000000000000000000003F
:4041800000000000000000000000000000000000000000000000000000000000000000000000000000000000000000000000000000000000000000000000000000000000FF
:4041C00000000000000000000000000000000000000000000000000000000000000000000000000000000000000000000000000000000000000000000000000000000000BF
:40420000000000000000000000000000000000000000000000000000000000000000000000000000000000000000000000000000000000000000000000000000000000007E
:020000040001F9
:0200000490303A
:020000009EDD83
:0200000490402A
:4000000000000000000000000000000000000000000000000000000000000000000000000000000000000000000000000000000000000000000000000000000000000000C0
:0200000490501A
:0C0000000002257C11B50001258FB09294
:0200000490600A
:0100000001FE
:00000001FF