:400000000040002011000000FD030000FD03000010B503F04BF800F011FAC04670B5154C12232360182002F0B9FFFE221202124B1A60124B124A1A6080214901114A11603E
:40004000114A1A600025114B1D604022104B1A600132104B1A6010490D2002F00DFF0D2002F0EAFE0D4B1D60002003F027F81123236070BD300010400003014000000140F3
:4000800040FF00800403014041FF008028000340140101400C010140513100000C02224010B572B61D4A1E4B1A601E4A1E4B1A60EE2212021D4B1A601D4A1E4B1A60CC22B8
:4000C000D2051D4B1A6099221C4B1A6077231C4A13601C4A1360C3221B4B1A6024321B4B1A60D82212011A4B1A60F022194B1A600C32194B1A60C023184A1360184A1360DF
:40010000BE3B184A13603121174A1160174A1360FFF784FF00F050F910BDC046660666060001024066066066000202400003024000006666000402400005024000070240FC
:4001400000010440180104400002044018020440080304400004044018040440000504401805044000070440080704401807044010B5064C2378002B07D1054B002B02D095
:40018000044800E000BF0123237010BD4001002000000000A4400000084B10B5002B03D00749084800E000BF07480368002B00D110BD064B002BFBD09847F9E700000000AD
:4001C00044010020A4400000B00000200000000010B502F0C1FD024802F0BEFD10BDC046B040000000B58BB06B46DA1D02F0F6FC0200064902A803F031FB02A802F0ACFDDC
:40020000034802F0A9FD0BB000BDC04600410000F040000000B583B06B46DA1D02F0DEFC03B000BD10B500210020FFF7F3FF01210020FFF7EFFF02210020FFF7EBFF0321C5
:400240000020FFF7E7FF04210020FFF7E3FF05210020FFF7DFFF06210020FFF7DBFF07210020FFF7D7FF08210020FFF7D3FF09210020FFF7CFFF0A210020FFF7CBFF0B21CA
:400280000020FFF7C7FF0C210020FFF7C3FF0D210020FFF7BFFF0E210020FFF7BBFF0F210020FFF7B7FF10210020FFF7B3FF11210020FFF7AFFF00210020FFF793FF012186
:4002C0000020FFF78FFF02210020FFF78BFF03210020FFF787FF04210020FFF783FF05210020FFF77FFF06210020FFF77BFF07210020FFF777FF08210020FFF773FF09211A
:400300000020FFF76FFF0A210020FFF76BFF0B210020FFF767FF0C210020FFF763FF0D210020FFF75FFF0E210020FFF75BFF0F210020FFF757FF10210020FFF753FF112199
:400340000020FFF74FFF024802F006FD10BDC046B040000010B562B602F088FC0748FFF737FF00F0C3F800F0E5F8FFF75BFF642002F094FD00F0B4FBF5E7C04604410000B4
:400380000B4B1B68002803D080221206134301E05B005B08064A1360064B1B68002802D02022134301E020229343024A1360704780033A402800034010B50323094A136009
:4003C000094A136080214901084A11601121084A1160084A13602022074B1A600120FFF7CFFF10BD002102400421024094022940C002294030003040000E3F4010B503F036
:40040000EFF903680C2B00D1FEE7FEE710B50300084A1068C318084A9A1A802A02DC054A136005E003F0DCF90C2303600120404210BDC046B4000020B005002070B50F4EFA
:400440000F4D13E029686B68AC68002202E001C901C30432A242FAD1E868002202E0002102C304328242FAD11035013E002EE9D103F0BCF9FFF76EFFFEE7C04601000000DC
:40048000BC44000010B500230AE0032B03D89A000849505800E008489900084A885001332B2BF2D9FFF7FCFD80229205044B1A6010BDC04600000000FD03000000000020A2
:4004C00008ED00E010B5084B1B78002B06D100F0F7F800F081F90122034B1A7000F058F800F076FC10BDC0465C01002070B5FFF7E9FF051E02D100F08DFB0500002D02D1CE
:4005000000F0EEFA0500002D02D00BE0013C00E0074C00F0A1FA002801D0002CF6D1002C00D1102500F062F900F0AEF9280070BD404B4C0070B5144E002400251FE01F23BC
:400540002B4001229A4011006A091048043293001A580A40C3185B6813420ED0300000F055F804003100280000F080F8002C04D02100280002F010FB062438360135002D6E
:40058000DDD0200070BDC0464C410000C002002030B500230CE015489A1D920000211150191D8A00012149421150821851600133002BF0D00E4A012314E05568907E0B4BE7
:4005C0005B1800241C7705280AD11369002B01D0687A18705368012040429882D882187638320B00591E002BE7D130BDC00200204C41000030B50B884A889C1A00250D81A9
:400600008079844200DD0C8130BDC046F0B583B08468038B4668827E019200250FE0019A2100300000F046F9051E02D080252D063D4321003000FFF7DDFF0C343B005F1E74
:40064000002BECD1280003B0F0BDC04610B50C00080001F0B9F9200001F086FA200001F055FB200001F0F8FC10BDC04670B504008A7E124B1B181D7F052A04D12800FFF73F
:40068000E5FF050002E0002002F0F4FB0B4B1B191D7763091F2214401E3AA240002D06D1064906339B0058589043585005E0034906339B00585802435A5070BDC002002010
:4006C00070B5334CB92292000021200003F0BDF8304B238090231B0163802F4BA3800A23E38303222D4BE25401212023E1542C4B63842C4B0A22E25417222B4BE254153A28
:400700000233E2543E32183BE252284A043BE2500C221433E2541332254BE2549623DB00244823520238215223482449605224496254244AA352244B0A22E254023B01227B
:40074000E2541222214BE254214A053BE252214924340B00783325CB25C425CB25C41B6823600A00103240310C0001230CE0A168238B04E01378CB7201320C310300581E39
:40078000002BF7D138342B005D1E002BEFD170BDC002002006BAFFFFB80B0000E3020000BE84FFFF8F0200008E020000D8B80500890200007E020000C05D00007A0200003A
:4007C0008D020000820200008602000085020000E50700000C4100000023024AD380024A13607047C0020020A00100207047C046FF231940062902D0831800219971530071
:40080000195AC3185980C94399808218002393727047C04670B506000D00012305E0220029003000FFF7E4FF23005C1E002BF6D170BDC04670B5094CC3001D1AEA00A2187E
:4008400095684A0051188A00AA181B1AD9006118897E1000FFF7DEFF70BDC0464C41000070B50500C200121AD300064AD3181B8B04E021002800FFF7DDFF23005C1E002BB8
:40088000F7D170BD4C41000010B5012303E02000FFF7E6FF23005C1E002BF8D110BDC0469840504380235B009A1A51434018000A7047C046F0B54F4680B482B001900E007C
:4008C00015000024012346E07B00F3189A885988CB439BB29A423BD17B00985B814206D8431A9946F31900229A72012302E00B1A99460023002B12D1019AD37999450ED93D
:40090000F3199B7A927A934205D33A0029003000FFF76EFF16E0F2190133937212E0FF232B40062B0ED00902F31999469B79194308230122FFF7B4FF020A7B00F3185A8056
:400940004B4698717B00F3185A88D2439A8001E0802424063B005F1E002BB5D1200002B004BC9146F0BDC04670B504000D009F2808D91B4B994205D91A49280002F00AFD91
:40098000002921D09F2C09D9FF235B009D4205D91549280002F0FEFC002917D09F2C07D97E2D05D97F21280002F0F4FC00290FD09F2C0FD93E2D0FD93F21280002F0EAFC68
:4009C00000290BD000200AE0042008E0032006E0022004E0002002E0002000E0012070BDFE030000FF030000FF01000010B54B1EDBB2032B01D8102300E00023002911D079
:400A0000002B11D0642253430100180002F03CFC002301E0013340000928FBD90A2804D9013B02E0002300E00023D8B210BDC04670B50D004C8800F023FE06002100FFF7EA
:400A400093FF040001003000FFF7D0FF0001C0B22043A87370BDC046024BDB68802018407047C046C002002010B5114BDB68DB0312D4002812D11F23034001229A401100D9
:400A800042090B4C043293001A590A40E3185B68134205D1012404E0112402E0012400E00024002C01D100F0B3FD200010BDC046C002002010B5084BDB68DB0307D4074B03
:400AC0001B78022B05D100F093FC002003E0112001E00120404210BDC0020020A401002010B50C4BDB681B0612D40024012040420BE02000FFF7B8FF002805D10022064B5F
:400B00005A70FFF7D7FF04E00134002CF1D000E0112010BDC0020020A4010020F8B54F464646C0B401280BD0022804D0002399460633984607E0052399460023984602E066
:400B4000002399469846144C00251FE002F05DFB2268136861698B43136066683268A77F0721B9408A434146B9400A433260227F494691400B4322681360E2681368A169C1
:400B80008B43136002F045FB20340135112DDDD90CBC90469946F8BDA44100007047C04610B502F00BF910BD074A084B1A6001380002074B1860054B1B68002BFBDB054AA2
:400BC000024B1A607047C04640000040000001400003014040FF008010B51F23034001229A40110042090A4C043293001A590A40E3185B68134201D0002300E01123002BE8
:400C000003D1282100F036FB0300180010BDC046C002002070B50024002504E02000FFF7DBFF05430134002CF8D0280070BDC04610B500240CE0E200121BD300064AD318A6
:400C400059682000FFF7F4FE200001F093FF0134002CF0D010BDC0464C410000F0B55F4656464D464446F0B483B001902B4E3468FF231B021C400094294F3B680C229246B7
:400C80001A409146274C2568FC231B011D40AB4602F0BBFA3368244A90461340336002F0B8FA02F0B2FA3B68524693433B6002F0B0FA02F0AAFA23681C4D2B40D822120182
:400CC0001343236002F0A5FA6B46988802F0D2F902F09BFA23681D405A461543256002F098FA02F092FA3B68524693434A4613433B6002F08EFA02F088FA336842461A4011
:400D00001400009B1C43346002F083FA03B03CBC90469946A246AB46F0BDC046000402400004044008040440FF00FFFF3FF0FFFF70B505000E00140002F067FA2B685C40E0
:400D400034405C402C6002F064FA70BD10B5084C0022F02109012000FFF7EAFF0022F02109022000FFF7E4FF00F040FC10BDC0460004024010B50400144B1B78834223D016
:400D8000012B0AD0022B02D1FFF7E0FF05E0042B03D0032B01D101F0D5FE012C14D0022C05D100F06BF90222084B1A700CE0042C0AD0032C05D101F0D3FE0322034B1A7089
:400DC00002E00022014B1A7010BDC046A401002010B5FFF72DFF0020FFF7A0FE0021044B044AD1540020FFF7C5FF002010BDC046E3020000C0020020F0B5474680B482B0D7
:400E000005008846C100091ACB001F49CB189C68142A02D91000143800E0002014321700642A00D9642743465843642102F02CFA060040467843642102F026FA010000235A
:400E40000193002713E05300185B864208D81300814201D207E001235A1E002BF3D104E00623019301E0062301930C340137EA00521BD300044AD3181B8B9F42EBD3019843
:400E800002B004BC9046F0BD4C41000083894288981E504380B2704710B5394B1B685B68DA7A384B1968384B1B78CB18DB7A7F210B4036490B43D200354952581343354AEC
:400EC00013600022344B5A80344A354B1A600122344B1A601123344A136080214904334A1160334A13600622324B1A60324A334B1A60334A334B1A60334A344B1A60F023EE
:400F000000E0013B314A1268D20701D5002BF8D12E4B1B68DB0703D5C22292002B4B1A6020232B4AD15C2B4802F0AEF92A4B984204D9284B984203D8302302E0202300E044
:400F40004023264A1343164A1360254A254B1A60002314490B6014490B6014490B6023201349086013490B6014490B6015490B60832149001C4B1960144B1A6010BDC046C9
:400F8000A8010020A40500201C440000800E0F00E4430000C0012940B00100202010048000002940800129408002294084022940C00229408802294001010100B002294063
:400FC00010100000B40229400303000040032940C002002000366E01001BB70000100C80010300008C012940F000294010B5102001F02CFF83225200154B1A60154B1B68F3
:401000009BB2154A5380154B1B689BB25188CB189BB25380518889B213889BB2994202D913889BB253800E4B1B6898470D4BDB681B0609D40C4A0D4B1A60C02292000C4B71
:401040001A600C4A0C4B1A60102001F0F5FE10BDF0002940D0002940B0010020D4002940B8000020C002002020100480000029408C012940800E4F01C001294010B5514B18
:40108000514A9A5C5149585C824206D0FFF746FD4C4B4E4A995C4C4A9954832252004C4B1A6000244B4B1C60053AFF3A4A4B1A604A4B1C604A4B1C604A4A4B4B1A60C0226A
:4010C00092004A4B1A604A4A4A4B1A604A4A4B4B1A6050224A4B1A604A4B1C604A4B1C604A4B1C604A4B1C604A4B1C6002F08DF8494A1168494B0B40802149010B43136024
:4011000002F087F83222464B1A6080225204454B1A6002F07AF8444A1168444B0B40802149050B43136002F074F8414B1C60414B1C602322404B1A60143A404B1A600B3A98
:401140003F4B1A603F4B1C603F4B1C60C22292003E4B1A603E4A3F4B1A600120FFF77EFD02F053F83C4C22683C4B1340236002F050F802F04AF82268394B1340236002F0D8
:4011800048F802F042F8374C2268374B1340C022D2001343236002F03CF802F036F82268324B1340C022D2011343236002F031F82023044AD05CFFF7F7FC2D48FFF7F0FC0E
:4011C00010BDC046C0020020E3020000E2020000F0002940F4002940F80029408001294084012940411F0000880129408C012940800E4F01C0012940AA000500F001294029
:4012000000022940040229408002294084022940880229409002294094022940FFEFFFFFA0022940A4022940A8022940EEFFFEEEB0022940B4022940C0022940000329404A
:40124000100329401403294020032940400329402010048000002940080404403FFEFFFFFFF1FFFF00040240FFF0FFFFFF0FFFFFED0F0000F0B55F4656464546E0B482B032
:4012800001908B46C3001B1ADA00414CA418A3689A46404B52461A606068FFF7F7FD3E4B188018885B465843642101F0EDFF0600E37E257F5D43002109E0364A0023106848
:4012C000038013684020D8720C3313600131A942F3D3202440270023984600E01C000198FFF7C2FBFFF7E6FB2C4B02E0002B05D0013B2B4AD2681206F8D401E010239846CC
:40130000244B52461A6000210EE0224B1B681A88964202D2DA7ABA43DA72DA7A2243DA720C331C4A13600131A942EED36308DBB2002C03D027004246002ACFD00198FFF749
:4013400093FBFFF7B7FB4346002B04D016E0002B07D0013B00E0114B114AD2681206F6D401E0102398464346002B07D10A4B198889B25A460198FFF73FFD8046019801F05E
:40138000F9FB404602B01CBC90469A46A346F0BD4C410000A4050020B001002000A60E00C002002010B50400837F06229A40072199404068FFF7BCFC237F04229A400F212A
:4013C00099402068FFF7B4FC10BDC04610B50400837F0721994000224068FFF7A9FC237F06229A400F2199402068FFF7A1FC10BD10B5194B194A9A5C1949585C824206D01B
:40140000FFF78CFB144B164A995C144A99540022144B1A70144B1A68144B91681960137F134CA380D37EE3801068A0605B01C018E060FFF7B7FFA068FFF7C8FF0D4A0E4B9E
:401440001A60054AD16880230B43D3600A2001F011FEFFF721FD10BDC0020020E3020000E2020000AC010020A8010020A4050020B001002015150000B800002070B5040035
:4014800001F0C3FE2268136861698B43136001F0C0FE01F0BAFE61680B68A47F0722A2409343064A064DAA5C002A02D10632A24013430B6001F0ADFE70BDC046E30200009D
:4014C000C002002070B5040001F09FFE2268136861698B43136001F09CFE01F096FE61680B68A57F0722AA409343084A084EB25C002A02D10632AA4013430B60E26813688F
:40150000A1698B43136001F084FE70BDE3020000C002002010B52E4B19682E4B1B782E4C228860885B00121A5A52E068FFF7A6FF2A4A13780133DBB21370A388013B9BB215
:40154000A380002B0CD0244BD8682030D860FFF729FF1F4A13680C331360FFF79DFC35E01D4AD388013B9BB2D380002B1BD014009068FFF7A7FFA0682030A060FFF726FFE3
:40158000174B1B681A7FA2801A68E260D87E40011018E060FFF706FF0D4A13680C331360FFF77AFC12E00C4B9868FFF78BFF0D4B1B78002B02D0FFF7F1FA07E00A4B1A896C
:4015C00001321A81DA6880218A43DA6010BDC046A40500201C440000B0010020AC010020A8010020A5010020C002002010B5074B1B8A002B08D0054CE068FFF73FFFA06894
:40160000FFF760FF0023238210BDC046B001002070B50400C2B2134B1A700220FFF7AAFBFFF7E4FFE000001BC2000F4BD3180F4A13605D68AC896A880D4B1A602800FFF724
:4016400025FC0C4B1880AB7B013C2405240D1B041C43094B1C602023084AD05CFFF7A4FA70BDC046AD0100204C410000A801002014032940B001002000022940C002002005
:40168000C300181AC300024AD3185B68988970474C410000F0B54E0073189C001419677A45002D18AB000D4DEB185F72E4880134DC8071188B00D3189B7A9A0606D04200BF
:4016C00010188200AA18013B937205E042001018820002498A189372F0BDC046C4010020F0B544002418A300184CE3189B88934206D2430018188300E31881225A7223E088
:40170000124B3E229C5C01329A5C2243002303E0D50704D552080133042BF9D98223FF221A400126350095402A00084D14433E22AC5444002718BA00AA185372D680130068
:401740008022524211439972F0BDC046C4010020F0B54D006C18A3009B5A9C46094E47003C18A3009B5B6446E41A69188D0055196A8838188300F3185B88D31A64435B43B8
:40178000E018F0BDC4010020F0B583B0060001913C231C4AD25CCB5C9A422DD3130013E03C23019AD35C0BE0AA0052199300F418019A39002800FFF7CBFFBB0018513B0050
:4017C0005F1E002BF0D12B005D1E002BE8D116E03C230C4AD35C0BE0AA0052199300F418019A29003800FFF7B3FFBB0018513B005F1E002BF0D12B005D1E002BE8D103B0D4
:40180000F0BDC046C40100200B8803804B8843800B7A03728B8883804B7A4372CB88C3808B7A83727047C046F0B55F4656464D464446F0B48FB000900F0003929A461D0076
:401840006435782353449B4654467D34564682368A00002109A801F0F8FF009B019306E09300002104A81950FF23B35413005A1E002BF5DC3B000027B4468AE0E21800216A
:401880001170FF22C2549A004E49A9501A0001E0019A5846531E002AF0DC8346029E01235B4299465EE0B30009AA9B589846019A01277F42009622E0E256002A1ED1990027
:4018C000C8188200524400988000825804AE8859121A4046121A69180868824203DA0A605A464846D0547A1C05D00968BA005259914202DB02E01F0000E01F001A00531EC3
:40190000002AD9DCB846BB00E858019B6146BC4616E0A356002B0DD08E5609ABB600F7583F18F750960004ABF35800931B1A04AFF35104E09300EB181E68361A1E60130028
:401940005A1E002BE5DC67468C4609AB029A9200D15889464844D05001234246A35463469E56B946731C9ED15E46A046604603E08356C3550027CF573B00F11900228A5629
:40198000541CF5D1B3464446844602000298D05403005A1E0292002B00DD79E76646019A039904E0F256501C00D08B541A00531E002AF7DC0FB03CBC90469946A246AB4676
:4019C000F0BDC046FFFFFF7FF0B55F4656464D464446F0B4426881689388127A9B1A9BB29C46C37E013BDBB29846067F751EEDB200203C235B4AD05400239B46A9E00889EE
:401A0000844501D8002300E00123002B2ED15C46002C2BD0AA4209D26C00A146A9444C46A4000C1B2489A04200D80133002B0AD17400A146B1444C46A4000C1B2489A042A9
:401A400003D9340003E02C0001E034000123002B0CD10134E4B2002A08D06700B9464C44A4000C1B2489A04200D80133002B2FD1C3452DD2741CE4B2AA420BD26700BA4655
:401A8000A2445746BF00B94689444F463F89B84200D20133002B0CD17400A146B1444C46A4000C192489A04201D3340001E034000123002B0CD1013CE4B2002A08D06700F4
:401AC000B9464C44A4000C192489A04200D20133002B05D1AA4203D28C8AA04200D20133002B07D1002A05D00C000C3C2489A04200D80133002B20D13C331A4CE35C042BE9
:401B00001BD85F00B9464B449B005F461F533C239946E35C5F00BA4653449B00E3185A804B46E35C5F00BA4653449B00E31898804B46E35C0133484623540C310132D2B2BF
:401B400000E00022AA4200D859E75F460137FBB29B46C345F5D93CBC90469946A246AB46F0BDC046C4010020F0B55F4656464D464446F0B48BB08046C37E013BDBB20393B8
:401B8000037F013BDBB2029300230193AEE043469D68019F3E005C497A00D01983001800CB185C88435A4246127F5343E3185A00D3189C00A446002248E073009B1999000E
:401BC000514BCB5A013B10009B1802D403998B4237DD05AB47000021F952C71C7F00F95206304000C1522FE071008C19A100464C6118498801391F00C91802D4029CA14206
:401C000007DD7900C91909184900002705AC0F5314E0511E4446247F614359184C0061188C0021000C3961446918098989465900C9180918490005AF4C46CC530133DBB214
:401C400000E00023022BCFD90132D2B2022AB4D9002400250020002114E04B005B189B185B0005AFDF5BE419531E7B43C0184B1E7B43ED180132D2B200E00022022AECD90A
:401C80000131C9B20229F8D943465B6A9B465843210001F083FB1C4B994673009A469A1993004A469B5A5A465343C0187F30000A53469A1993004A46D05243469B6A9B46F6
:401CC00018006843210001F069FB53469B199A004A44538859464B43C0187F30000A508024091472019F0137FBB201933C23064AD35C019A9A4200D249E70BB03CBC904621
:401D00009946A246AB46F0BDC4010020F0B55F4656464D46E0B486B04568036B9A463C23BC4AD75CAC882B7AE418A3B20093002F05D13C235246D35C002B00D183E1B54B3B
:401D400000223E215A5401315A540CE0510089188B005344597A01238B40AE483F21465C3343435401323C235146CB5C9A42EDD3A84E483603239E43002F09D1D0E04A0023
:401D800052189300A34AD31828225A720C0000E00524611E002CF2D13C235246D35C002B06D008E0697A009A2000FFF799FC0134BC42F7D358E09F4258D3012F07D1012B09
:401DC00005D100213F33934AD154260034E051463000FFF7D9FC3C235246D15C33008D4A40323800FFF720FDEFE72B699B46894B9B1940331B785BB2524631000193180066
:401E0000FFF7A6FC834505D2697A009A0198FFF767FC10E072009219930053445A7A012393407C493E22885C03438B54524631000198FFF72FFC01363C235246D35C9E420C
:401E4000D3D39F420ED80FE0620012199300714AD3185B7A282B04D1697A009A2000FFF73FFC0134BC42EFD3002354E051463000FFF78AFC3C235246D05C3300654A40326F
:401E80003900FFF7D1FC25E02B699946614B1B19403300269E57524631002000FFF758FC814505D2697A009A2000FFF719FC10E062001219930053445A7A012393405549B8
:401EC0003E22885C03438B54524631002000FFF7E1FB0134BC42D7D3C6E75900C9188A004C498A18927A51B2002913DA3F211140012908D85800C018810046484118402061
:401F000002408A7206E05900C9188A0041498A180021D18001333C223E498A5C9342DCD33C233C4AD35C002B04D13C335246D35C002B6AD03C23374AD75C002423E062004D
:401F400012199300334AD3185B7A042B1AD97B1E15E05900C9188A002E498A18527A042A0BD808005A00D31899004118620012199300C018FFF748FC03E0013F013B9C424E
:401F8000E7D3013F0134BC42D9D33C23214AD754002638E0731C01931C0031E01D48710089198A008218D188620012199300C318DB8899420CD322D1710089198A0082188E
:401FC000517A620012199300C3185B7A994216D9104D73009B199A00AB180093190003AA1000FFF711FC63001B199A00AD1829000098FFF709FC03A92800FFF705FC01347D
:40200000A742CBD8019EBE42C4D33C23014AD35C0DE0C046C401002063001A1991000D4A51181B1998005044FFF7EEFB23005C1E002BF1D1074B3C22995C50468154023239
:40204000995C0132995406B01CBC91469A46A346F0BDC046C4010020F0B54468002000232AE03C2216498A5C934219D25900C9188A0013498A18D288002A11D00E005D00F2
:40208000E9188A00975B4A00A2189782890071184D88D5820D7A1576497A517601300AE05900C9184A00A218012149429182D1821176293151760133002BD2D0F0BDC046E4
:4020C000C401002070B588B004000D0020221049684601F0B1FB002013E0050B227813096B400F252B405B006E469B5B00014340180B42402A405200905B1B0158400134C6
:402100000D00691E002DE8D180B208B070BDC0462044000010B50C4B1B78062B03D101220A4B1A600EE00A4BA22292009A5C012090409E229200995A01F0A6F80004000C9A
:40214000024B186010BDC0469402002014032940C002002083225200064B1A60064B1B689BB2064A5380064AD168064B0B40D3607047C046F0002940D0002940940200204C
:40218000C00200207FFFFEFF01380005000D014B18607047000229407F231840024B1843024B18607047C04600008301C001294082B000231C4A13601C491D4A11601D49EE
:4021C0001D4A116006211D4A116001221C490A60802040041B4908601B490A601B4A83214900116012681A4A13600322194B1A60F0230193019A03E0019B013B0193019A55
:40220000124B1B685B0701D4002AF5D1019B002B02D108220F4B1A600023054A1360064A136002B07047C0468C01294001010100B002294010110000B402294088022940A1
:402240008002294084022940F0012940F0002940F80029404003294082B00190019A03E0019B013B0193019A044B1B7B5BB2002B01DA002AF4D1019B02B07047C0020020AE
:40228000C900054BCB587F2210401843F0231B031843024B18607047E4430000C001294001280ED0002804D0022804D0032804D005E0012006E0042004E0002002E0002027
:4022C00000E002207047C04670B500F09EFF0C4D2A680C4B13402B600B4C236804229343236000F096FF00F090FF2A68074B13402B60236808229343236000F08AFF70BD72
:40230000080404403FFEFFFF00040440FFF1FFFF10B500F07AFF084C2268084B1340236000F077FF00F071FF2268054B1340236000F06FFF10BDC04600040240FFF0FFFFCD
:40234000FF0FFFFF10B500F060FF0B4C22680B4B1340C02252001343236000F05AFF00F054FF2268064B1340C02212011343236000F04FFF10BDC046080404403FFEFFFF82
:40238000FFF1FFFF70B505000C0000F03EFF69680B68AD7F0722AA409343AC401C430C6000F037FF70BDC04670B50600054D002405E031002800FFF7E5FF20350134112CE3
:4023C000F7D970BDA441000070B505000C0000F01CFF2A68136869698B43297F8C401C43146000F016FF70BD70B50600054D002405E031002800FFF7E7FF20350134112C12
:40240000F7D970BDA441000010B50400104B1B7983421BD002280AD003280FD0012813D10020FFF7E1FF0620FFF7BEFF0CE00020FFF7DAFF0020FFF7B7FF05E00020FFF7C6
:40244000B3FF0420FFF7D0FF014B1C7110BDC0469402002070B5C200121AD300134AD3185B695B070BD5C300181AC3009C58890061180C8864010E4BE4188E7807E0C3007F
:40248000181AC300094A9C58490164180126002509E000212000FFF775FF04212000FFF793FF20340135AE42F3D870BD4C410000A4410000F0B583B0C200121AD3001F4A87
:4024C000D3185B695B070BD5C300181AC3009C58890061180C886401194BE4188E7807E0C300181AC300154A9C58490164180126144B1B79022B09D0042B03D000270623B4
:40250000019306E005270023019302E000270023019300250DE000212000FFF755FF01992000FFF72FFF39002000FFF74DFF20340135AE42EFD803B0F0BDC0464C41000034
:40254000A44100009402002070B505000C0000F05CFEEA681368A9698B43697F8C401C43146000F056FE70BD70B50600054D002405E031002800FFF7E7FF20350134112C19
:40258000F7D970BDA441000070B5A1239B002A4AD55CA900782000F077FE041E00D101342800FEF701FB0322244B1A60244A254B1A60172000F05EFD234A244B1A60013CAE
:4025C000234B1C600023234A1360234A1360234A1360234A13600121224A11600131224A11608022520521490A60802040032049086020490B60882040021F4908601F49C9
:402600000B601F490B60882149041E4801601E4801601E490A601E4A07498A5C120241210A431C490A601C4A13601C491C4A11601C4A136070BDC046C00200200002294069
:40264000001000850000294093000004C401294000032940C00129408C012940C002294004022940100329401403294080022940840229408802294094022940A00229409E
:40268000A4022940B0022940B4022940A80229408502000088012940900229400100008080012940F800294070B50120FEF7D6FA0023524A1360524A13601121514A1160F4
:4026C000514A1360514A1360514A1360514A1360514A13600133514A13600239504A1160504A136000F091FD4F4B1A688024640114431C6000F08DFD4C4B1B78062B19D0CB
:4027000000F083FD4A4D2A684A4B1340C022D20013432B6000F07DFD00F077FD2C68464B1C40C023DB011C432C6000F072FD1022424B1A6080225205414B1A6080225204FB
:40274000404B1A60394B1B78032B01D0052B05D13D4A3E498C5C240241221443062B05D13B4B3A4AD45C240241231C43394B1C600023264A1360384A13602C4B1B78062B02
:4027800005D09F239B00314AD05AFEF70DFA334B1A6870218A431A60196830220A431A601B682F4A13432F4A1360172000F062FC1E4B1B78062B09D02B4B244AD25C2B4B83
:4027C0001A60C02212032A4B1A6005E00022274B1A60284A264B1A600020FFF7DDFC134B1B78062B05D09E239B00184AD05AFFF7CBFC214800F0E2FA70BDC046F4002940D9
:40280000B4022940C002294020032940840129408802294080022940840229408001294000032940F0012940940229409402002000040240FFF0FFFFFF0FFFFFA002294058
:40284000A8022940A402294089020000C00200208D0200008801294090022940BC00002000100084000029408F02000010032940040229400A000C005521000010B50400A3
:40288000134B1B78834221D0012B02D0032B03D004E0FFF719FD01E0FFF73AFD0C4B1C70032C0BD002D8012C05D00FE0062C08D0072C09D00AE0FFF745FD07E0FFF7F4FEB5
:4028C00004E0FFF7F1FE01E0FFF75EFE10BDC0469402002000B583B0284B832252001A601B68102000F0BCFA102000F0A5FA0022234B1A60234B1B78032B05D10023224AD1
:4029000013601F4A136004E000231F4A13601C4A136050221D4B1A601A4B1B78062B08D11B4A1C4B1A6000231B4A13601B4A136002E00122174B1A60124B1B78032B03D14A
:402940000022174B1A6002E00022154B1A600222144B1A60F0230193019A03E0019B013B0193019A104B1B685B0701D0002AF5D10E4A0F4B1A6003B000BDC046F000294056
:40298000800229409402002088022940F0012940010200008C012940B0022940B402294080012940F800294000002940010300004003294010B50020FEF750F9102000F04F
:4029C00045FA0122064B1A60182000F015FC054B1B78062B01D0FFF7EBFBFFF77BFF10BD8001294094020020F0B54F464646C0B483B080463F4BA22292009A5C01249440D1
:402A0000013C9E229200985AFFF7BEFBFFF782FB002500270023994623E0EA00364B9B185A6A91461F6A39001000FFF729FC314AD16880230B43D360FFF7BCFFE1208001F1
:402A4000FFF70AFC2D4B5B88FA2080005843210000F01AFC0600E1235B00984204D901950135032DD9D900E001954A2E02D8019B002B0ED0E1235B009E4202D9019B032B88
:402A800009D033004B3B7822FF32934205D8002504E0042502E0052500E00325FB00184AD31858684A460023002100F083FD02000B001249488880B2002100F07BFD114A27
:402AC000002300F077FD0B4F0F4BFA5A002300F051FD2200002300F04DFD9D239B00FA58002300F047FD43461D7003B00CBC90469946F0BDC0020020204400009402002074
:402B0000E443000040420F007E020000F8B504000D001600C200121AD300094AD318DF6A8B00FF18FFF796FC3000FFF75DFF060029002000FFF7BEFC3E603000F8BDC0460D
:402B40004C41000010B50020FFF798FE0020FFF75BFC0022014B1A7110BDC0469402002010B50022024B1A710020FFF7FDFC10BD9402002010B500280AD1C300181AC30097
:402B8000044AD3185C68A01C0E21FFF79BFA208010BDC0464C41000030B543091F2404400122A2400B4C04339B00E3185D6895435D6097239B00E358DA0609D422001024C4
:402BC00023439724A4001351034BD0540133D15430BDC046C00200206B02000070B506000C001500C200121AD300124AD3181A7FDB7ED318002816D18B4217D90320FEF78A
:402C0000B9F80320FFF73AFE0B4B0C4AD05CFFF747FB0B4B1871FFF7F7FB2A0021003000FFF774FF04E08020C00501E08020C00570BDC0464C4100008B020000C002002019
:402C40009402002010B500F075F810BD10B500F01DF810BD10B5044A1368802109060B431360FFF7EFFF10BD0000274010B5064B1B78002B04D1FFF7E9FF0122024B1A7080
:402C8000FFF7E8FF10BDC0469A020020154A164B1A600023154A13601549164A1160164A16490A6007201649086016490B6006381549086015490A60154A13600421154A47
:402CC0001160154A1360154A1360154A1360154A1360154A1360154A13601268144B1A807047C0460B000002000027404000274001000A0048002740070000800003274081
:402D0000040327401003274044002740000227400402274050002740880E2740C80E2740480F2740080F2740C80F2740880F27409C02002005490B68F0229343603A13436A
:402D40000B60034B1A88034B1A607047000702409C020020880F274070B50500002402E000F05AFA0134285D0028F9D170BDC0468023014AD05070470000002010B5040073
:402D800000F043FA044A1368C0218B43A4011C43146000F03EFA10BD10E400E080225202014B1A607047C04600E100E080225202014B1A607047C04680E100E010B5040070
:402DC000FFF7F4FF2000FFF7D3FF0320FFF7D6FFFFF7E4FF10BDC0460C4B1B689B001C22134018330A4A1268920803210A40D34008490868084A02400A60084A944663449C
:402E00001B78DBB2064A13607047C046080F03402800034000002240FFFFFFBF4DF3FF0F0C0F0340034B18688023DB05184000D001207047000022401F2318401E3B8340FA
:402E4000014A13607047C04600E100E01F2318401E3B8340014A13607047C04680E100E01F2318401E3B8340014A13607047C04680E200E001BE704770B504000D001B2842
:402E800002D90020FFF7F6FF1034A40080239B059C4664442068256070BDC04610B5040006E0084B586800F0A7F9074B9C46644480231B029C42F4D8024B9868604300F0BF
:402EC0009BF910BDC00000200080FFFF70B582B000F0E2F800284DD000F097F90500264B1A6892001C231A401832244B1B689B0803210B40DA400021214B1960214C2168A6
:402F0000214B0B4021494A438021C9018C466244D20B013A5205520D1343A0225203134323601B4B1B680193302000F083F9194A13688021C9050B4313602668164B1E4058
:402F4000002407E00120FFF7A9FF1034A30533430C4A1360EE2CF5D90120FFF79FFFFF239B051E43074B1E60019A094B1A60280000F04FF902B070BD080F0340280003405F
:402F80000C0F03400800224000F800C040420F003000104000002240FFFF3FC0F0B583B0040018280BD01C2809D0202807D0242805D0282803D02C2801D0302849D100F023
:402FC00024F90190FFF72EFF002803D0FFF704FF012600E00026214A136807218B4313601F4BE3181B78DBB21E4A13601E4A13688B4313601D4803687F22934319001C4B45
:40300000E3181B7813400B430360322000F0F4F8182C16D9114F3B680725AB431A0023001C3B9B082B4013433B60322000F0E4F83A68AA432300183B9B082C001C40144348
:403040003C60012E01D1FFF741FF019800F0E1F802E00020FFF70EFF03B0F0BD080F03404DF3FF0F0C0F0340100F0340180F034034F3FF0F10B5034B1B7B584300F0BCF8C7
:4030800010BDC046C0000020024B1868800F80077047C0460C022240034B1B68002B01DA012000E00020704700002240014A024B1A6070476588EDAC3800034010B50400A9
:4030C000FFF7E2FFA0421AD0144A136803218B431360134B1B689B0F01D17C2001E086204000FFF7C7FF00F090F80D4A13689B009B08A40FA4071C43146000F08AF8074BF6
:403100001B6803229343064A1268920F01D1023200E001221343014A136010BD140222400C02224010B5040000F06FF8054B1C4005490B68054A134023430B600B6800F071
:4031400068F810BD0404040010022240FBFBFBFF10B5244B1B685B0715D5234B1B685B070ED5224B5969042001401F4C22688A4322605A6982435A619B68002B00D0984781
:403180000420FFF7CFFF174B1B685B0518D5164B1B685B0510D5154B59698022D2001140114802688A4302605969114A0A405A61DB68002B00D098478020C000FFF7B2FFAD
:4031C000084B1B685B030CD5074B1B685B0304D5064B1B69002B00D098478020C002FFF7A1FF10BD10022240D4000020A0020020FFFBFFFF000000000230800803D001305A
:403200000238FCD1C046C0467047EFF3108072B6704780F310887047044B1B681F221340082BF9D0024B18607047C046080227404002274070B50400FFF7E7FF0500102C6D
:4032400005D8104A136803218B43136016E0202C07D80C490B6803229343023A13430B600CE0302C07D807490B6803229343013A13430B6002E00020FFF7FCFD2800FFF766
:40328000C8FF70BD30001040002243088B4274D303098B425FD3030A8B4244D3030B8B4228D3030C8B420DD3FF22090212BA030C8B4202D31212090265D0030B8B4219D3B7
:4032C00000E0090AC30B8B4201D3CB03C01A5241830B8B4201D38B03C01A5241430B8B4201D34B03C01A5241030B8B4201D30B03C01A5241C30A8B4201D3CB02C01A52418B
:40330000830A8B4201D38B02C01A5241430A8B4201D34B02C01A5241030A8B4201D30B02C01A5241CDD2C3098B4201D3CB01C01A524183098B4201D38B01C01A52414309DE
:403340008B4201D34B01C01A524103098B4201D30B01C01A5241C3088B4201D3CB00C01A524183088B4201D38B00C01A524143088B4201D34B00C01A5241411A00D20146ED
:40338000524110467047FFE701B5002000F0F0F802BDC0460029F7D076E7704703460B437FD4002243088B4274D303098B425FD3030A8B4244D3030B8B4228D3030C8B42F7
:4033C0000DD3FF22090212BA030C8B4202D31212090265D0030B8B4219D300E0090AC30B8B4201D3CB03C01A5241830B8B4201D38B03C01A5241430B8B4201D34B03C01A3B
:403400005241030B8B4201D30B03C01A5241C30A8B4201D3CB02C01A5241830A8B4201D38B02C01A5241430A8B4201D34B02C01A5241030A8B4201D30B02C01A5241CDD290
:40344000C3098B4201D3CB01C01A524183098B4201D38B01C01A524143098B4201D34B01C01A524103098B4201D30B01C01A5241C3088B4201D3CB00C01A524183088B42B8
:4034800001D38B00C01A524143088B4201D34B00C01A5241411A00D201465241104670475DE0CA0F00D04942031000D34042534000229C4603098B422DD3030A8B4212D380
:4034C000FC22890112BA030A8B420CD3890192118B4208D3890192118B4204D389013AD0921100E08909C3098B4201D3CB01C01A524183098B4201D38B01C01A5241430938
:403500008B4201D34B01C01A524103098B4201D30B01C01A5241C3088B4201D3CB00C01A524183088B4201D38B00C01A5241D9D243088B4201D34B00C01A5241411A00D2C7
:403540000146634652415B10104601D34042002B00D54942704763465B1000D3404201B5002000F005F802BD0029F8D016E770477047C046002B11D1002A0FD1002900D111
:40358000002802D00021C943081C07B4024802A14018029003BDC046D9FFFFFF03B4684601B5029800F032F8019B9E4602B00CBC7047C046F0B54F464646C0B41604360C76
:4035C0009946330005042C0C070C150C63437E436F4365431C0CAD1964199C46A64203D980235B02984647446346250CEF191D044B464A4343432D0C240464199918C919F1
:4036000020000CBC90469946F0BDC046F0B54D46564644465F46F0B4924683B004000D0099468B422FD82CD04946504600F0AEF829000600200000F0A9F8331A9846203BA7
:403640009B4600D574E053465A4693401F005346424693401E00AF4229D826D05B46A41BBD41002B00DA79E0002200230092019301235A46934001930123424693400093B7
:4036800019E08242D0D900220023009201930C9B002B01D01C605D600098019903B03CBC90469946A246AB46F0BDA342D6D900220023009201934346002BE8D0FB0772085E
:4036C0001A4346467B080EE0AB4201D1A2420CD8A41A9D41012024196D410021013E24184D41002E06D0AB42EED9013E24196D41002EF8D15B460098019900196941002B7D
:4037000022DB2B005A46D3402A004446E2401C005B461500002B2CDB26009E40330026004746BE403200801A994100900191AEE7424620239B1A5246DA40414613004A4633
:403740008A4017001F4382E7424620239B1A2A0046469A402300F3401343D5E74246202300219B1A0022009101920122DA40019282E74246202326009B1ADE402F00B44618
:40378000974066463B003343C9E7C04610B5002903D100F007F8203002E0081C00F002F810BDC0461C2101231B04984201D3000C10391B0A984201D3000A08391B099842BC
:4037C00001D30009043902A2105C40187047C04604030202010101010000000000000000014B18687047C046380100200E4B70B500251E000D4CE41AA410A54204D0AB0067
:40380000F35898470135F8E700F046FE084B00251E00084CE41AA410A54204D0AB00F35898470135F8E770BDA4440000A4440000A4440000AC440000002310B59A4203D068
:40384000CC5CC4540133F9E710BD03008218934202D019700133FAE7704700000EB410B59DB002A9029008610B48822488604861012040421FABC881084804CBA4000068A9
:4038800001938C8100F06EF80023029A13701DB010BC08BC03B01847FFFFFF7F38010020F0B58E6885B007000C00039201939E4243D890238A89DB001A423ED003250969DF
:4038C000236801985B1A029363695D43EB0F5D19029B6D1001331B18AB4200D91D00530510D52900380000F037FB061E14D0029A2169FFF7A1FFA289194B134080221343FC
:40390000A38112E02A00380000F086FB061E0CD12169380000F0D4FA0C23402201203B60A38940421343A38117E0029B2661F61826606561019EED1AA560019BB34200D225
:403940001E0032000399206800F0A5FA0020A3689B1BA36023689E19266005B0F0BDC0467FFBFFFFF0B59FB0029005938B890F0016001B0610D50B69002B0DD1402100F08D
:40398000EBFA38603861002804D10C23029A01381360D8E040237B61002306AD6B6120336B761033AB7634002378002B03D1A31B049312D003E0252BF9D00134F4E7A31B7D
:4039C000320039000298FFF76BFF431C00D1B4E06A69049B944663446B612378002B00D1ABE00122002352426A6002A95432521801342B60EB60AB601370AB65534E21789B
:403A00000522300000F03CFA002807D00123801B83402A68013413432B60EFE72B68DA0604D55322202102A8121811701A0704D553222B2102A81218117022782A2A03D0E2
:403A4000099B00200A210EE0059A111D12680591002A01DB099204E05242EA60022213432B6001340BE02278303A092A04D84B4301349B180120F6E7002800D0099323784E
:403A80002E2B1ED163782A2B0AD1059B02341A1D1B680592002B01DA01235B42079310E000230A201A0001346B6021783039092904D84243013452180123F6E7002B00D0A4
:403AC0000792234E21780322300000F0D9F9002806D04023801B83402A68013413432B60217806221B48661C297600F0C9F9002812D0194B002B06D10722059B0733934365
:403B00000833059314E005AB00933A00134B2900029800E000BF07E005AB00933A000F4B2900029800F08AF80390039B013304D06B69039A9B186B6135E7BB890B985B0601
:403B400001D5012040421FB0F0BDC04662440000684400006C44000000000000A1380000F7B5170001938A680B6900900C00934200DA130022003B6043321278002A01D09D
:403B800001333B6023689B0602D53B6802333B60062523681D401ED0230043331B785A1E9341226892061CD53020E1184331087021005A1C45310978A2184332023311708C
:403BC0000FE022000123193201990098089EB047431C0ED00135E3683A689B1A9D42F0DBDAE72200019943320098089DA847431C02D10120404220E006232068E1683A6828
:403C000003400025042B03D18D1AEB43DB171D40A3682269934201DD9B1AED180027BD420AD0220001231A3201990098089EB047431CDED00137F2E70020FEBDF0B58BB0B8
:403C400006920A0043320793059004920A7E0C00109B6E2A00D1ABE011D8632A22D009D8002A00D1B5E0582A00D0C5E045310A70814A4FE0642A1DD0692A1BD0BCE0732A49
:403C800000D1AAE009D86F2A29D0702A00D0B3E0202209680A43226037E0752A1FD0782A33D0A9E00E001A684236111D196013683370A4E021681A68080606D4490604D578
:403CC000111D19600023D55E02E0111D19601568002D3BDA2D23049A6D42137036E021681A68080606D4490604D51568111D1960ADB202E0111D196015685F4B227E0393C5
:403D000008276F2A1DD00A271BE022007821453211705A4A19680392081D226818600D68100602D4500600D5ADB2D30702D520231A4322601027002D03D1202322689A436E
:403D400022602300002243331A7002E00A274A4B03936368A360002B09DB0422216891432160002D05D1049E002B11D07BE0002D79D0049E28003900FFF70CFB039B013EFE
:403D80005B5C280033703900FFF77EFA051EF1D1082F09D12368DB0706D563682269934202DC3023013E3370049B9B1B23612BE009681A68080607D4490605D5111D1960CE
:403DC0001368A28A1A8004E0111D1960136862691A600023049E236116E01A68111D1960166800216268300000F04AF8002801D0801B6060636803E026004236327001239E
:403E000023610023049A1370079B09AA00932100069B0598FFF7A4FE431C02D10120404227E02369320006990598079DA847431CF4D0236800259B070FD4099BE068984254
:403E400017DA180015E022000123193206990598079EB047431CE1D00135E368099A9B1A9D42F0DBE9E72600039B42361B7833708EE70BB0F0BDC0467344000084440000A4
:403E8000C9B28218904204D003788B4202D00130F8E70020704710B5884202D98B18984201D3002305E09B1A013A08D3995C8154FAE7934203D0CC5CC4540133F9E710BD44
:403EC00070B50500002944D00C1F2368002B00DAE418280000F0D8F81E4A13681100002B02D16360146031E0A3420DD92268A018834203D118685B688218226063600C604E
:403F000024E0A24203D813005A68002AF9D11E689819A0420BD12168711858181960824214D110685268411819605A600EE0A04202D90C232B6009E021686018824203D1B7
:403F4000106852684118216062605C60280000F09CF870BDBC020020032370B5CD1C9D43083506000C2D01D20C2501E0002D01DBA94202D90C23336048E0300000F084F836
:403F8000234B1C681A002100002913D00B685B1B0DD40B2B02D90B60CC181EE08C4202D1636813601AE04B6863600C0016E00C004968E9E7174C2368002B03D1300000F0B5
:403FC00051F820602900300000F04CF8431C18D00323C41C9C43A0420DD12560300000F054F8200007220B30231D9043C31A0ED05A42E2500BE0211A300000F033F8431C9E
:40400000EBD10C233000336000F03FF8002070BDBC020020B8020020F8B506000C001500002904D11100FFF797FF040018E0002A03D1FFF745FF2C0012E000F027F885420F
:404040000ED929003000FFF787FF071E07D021002A00FFF7F1FB21003000FFF731FF3C002000F8BD002370B5064C050008002360FCF7CCF9431C03D12368002B00D02B60AD
:4040800070BDC046AC050020704770470B1F1A68101F002A04DA891804390B68D0180438704700000000000064F5FF7F010000000D0A000053554343455353004241445F51
:4040C000504152414D0000004C4F575F4C494D4954000000484947485F4C494D495400004552524F52000000776861743F0000002000000053484F5254000000424144008D
:40410000256C7500537461727421000000090B020F06040D070E0C050801030A20202020202020202020202020202020202020202020202020202020202020202020202052
:40414000202020202020202020000000A4410000E4020020000300200000000000000000012800002D00050F03006400640000002407000000320000540500206001002085
:404180008000000072016400640028280A031E0250000000C4090000FFFFFFFFFF280000020300000002024008020440180204400002044004020440000F000004000000EF
:4041C000080206000002024008020440180204400002044004020440F0000000020000000401030000020240080204401802044000020440040204400F00000001000000A5
:404200000000000000010240080104401801044000010440040104400000000F400000001806120000010240080104401801044000010440040104400000F00020000000F9
:4042400014050F00000102400801044018010440000104400401044000000F001000000010040C000001024008010440180104400001044004010440000F000004000000CE
:40428000080206000001024008010440180104400001044004010440F0000000020000000401030000010240080104401801044000010440040104400F00000001000000EE
:4042C00000000000000402400804044018040440000404400404044000000F001000000010040C0000040240080404401804044000040440040404400000F000200000005B
:4043000014050F0000040240080404401804044000040440040404400000000F40000000180612000004024008040440180404400004044004040440000000F08000000052
:404340001C07150000050240080504401805044000050440040504400000000F40000000180612000005024008050440180504400005044004050440000000F080000000F8
:404380001C07150000020240080204401802044000020440040204400000F0002000000014050F0000020240080204401802044000020440040204400000000F400000003E
:4043C000180612000002024008020440180204400002044004020440000000F0800000001C071500000000017C92000000000003F824010000004001E0930400000040033B
:40440000C02709000000C001804F120000008001009F240000008003003E49000000000000009AACAEF53459C6475CEB68B2F21E8C8F1623227AB8D64AC8D064E43D7E91B4
:4044400002000000140000000200000050000000050000002800000006000000500000004300232D302B2000686C4C0065666745464700303132333435363738394142434C
:40448000444546003031323334353637383961626364656600000000F8B5C046F8BC08BC9E4670479901000085040000F8B5C046F8BC08BC9E46704771010000D044000096
:4044C000B000002090000000700400000000000000000000B00500201515000002000000010000000000E02EC05D00001800000000366E01040404000000000000000000F2
:4045000000000000000000000000000000000000000000000000000060440000000000000000000000000000000000000000000000000000000000000000000000000000D7
:40454000000000000000000000000000000000000000000000000000D800002000000000000000000000000000000000000000000000000000000000000000000000000043
:4045800000000000000000000000000000000000000000000000000000000000000000000000000000000000000000000000000000000000000000000000000000000000FB
:4045C00000000000000000000000000000000000000000000000000000000000000000000000000000000000000000000000000000000000000000000000000000000000BB
:40460000000000000000000000000000000000000000000000000000000000000000000000000000000000000000000000000000000000000000000000000000000000007A
:40464000000000000000000000000000000000000000000000000000000000000000000000000000000000000000000000000000000000000000000000000000000000003A
:020000040001F9
:0200000490303A
:0200000033DCEF
:0200000490402A
:4000000000000000000000000000000000000000000000000000000000000000000000000000000000000000000000000000000000000000000000000000000000000000C0
:0200000490501A
:0C0000000002257C11B5000125924591FD
:0200000490600A
:0100000001FE
:00000001FF